{
  "contractName": "SupplyChain",
  "abi": [
    {
      "inputs": [],
      "payable": true,
      "stateMutability": "payable",
      "type": "constructor"
    },
    {
      "anonymous": false,
      "inputs": [
        {
          "indexed": false,
          "name": "pn",
          "type": "uint256"
        }
      ],
      "name": "Mtl_Received",
      "type": "event"
    },
    {
      "anonymous": false,
      "inputs": [
        {
          "indexed": false,
          "name": "pn",
          "type": "uint256"
        }
      ],
      "name": "Built",
      "type": "event"
    },
    {
      "anonymous": false,
      "inputs": [
        {
          "indexed": false,
          "name": "pn",
          "type": "uint256"
        }
      ],
      "name": "Shipped",
      "type": "event"
    },
    {
      "anonymous": false,
      "inputs": [
        {
          "indexed": false,
          "name": "pn",
          "type": "uint256"
        }
      ],
      "name": "Widget_Received",
      "type": "event"
    },
    {
      "anonymous": false,
      "inputs": [
        {
          "indexed": false,
          "name": "pn",
          "type": "uint256"
        }
      ],
      "name": "Widget_Purchased",
      "type": "event"
    },
    {
      "anonymous": false,
      "inputs": [
        {
          "indexed": false,
          "name": "pn",
          "type": "uint256"
        }
      ],
      "name": "Widget_Shipped_to_Customer",
      "type": "event"
    },
    {
      "constant": false,
      "inputs": [],
      "name": "kill",
      "outputs": [],
      "payable": false,
      "stateMutability": "nonpayable",
      "type": "function"
    },
    {
      "constant": false,
      "inputs": [
        {
          "name": "_pn",
          "type": "uint256"
        },
        {
          "name": "_originFactoryID",
          "type": "address"
        },
        {
          "name": "_originFactoryName",
          "type": "string"
        },
        {
          "name": "_originFactoryInformation",
          "type": "string"
        },
        {
          "name": "_originFactoryLatitude",
          "type": "string"
        },
        {
          "name": "_originFactoryLongitude",
          "type": "string"
        },
        {
          "name": "_productNotes",
          "type": "string"
        }
      ],
      "name": "receiveItem",
      "outputs": [],
      "payable": false,
      "stateMutability": "nonpayable",
      "type": "function"
    },
    {
      "constant": false,
      "inputs": [
        {
          "name": "_pn",
          "type": "uint256"
        }
      ],
      "name": "buildWidget",
      "outputs": [],
      "payable": false,
      "stateMutability": "nonpayable",
      "type": "function"
    },
    {
      "constant": false,
      "inputs": [
        {
          "name": "_pn",
          "type": "uint256"
        }
      ],
      "name": "shipItem",
      "outputs": [],
      "payable": false,
      "stateMutability": "nonpayable",
      "type": "function"
    },
    {
      "constant": false,
      "inputs": [
        {
          "name": "_pn",
          "type": "uint256"
        },
        {
          "name": "_price",
          "type": "uint256"
        }
      ],
      "name": "receiveItemWarehouse",
      "outputs": [],
      "payable": false,
      "stateMutability": "nonpayable",
      "type": "function"
    },
    {
      "constant": false,
      "inputs": [
        {
          "name": "_pn",
          "type": "uint256"
        }
      ],
      "name": "purchaseItem",
      "outputs": [],
      "payable": true,
      "stateMutability": "payable",
      "type": "function"
    },
    {
      "constant": false,
      "inputs": [
        {
          "name": "_pn",
          "type": "uint256"
        }
      ],
      "name": "shipItemCustomer",
      "outputs": [],
      "payable": false,
      "stateMutability": "nonpayable",
      "type": "function"
    },
    {
      "constant": true,
      "inputs": [
        {
          "name": "_pn",
          "type": "uint256"
        }
      ],
      "name": "fetchItemBufferOne",
      "outputs": [
        {
          "name": "itemSKU",
          "type": "uint256"
        },
        {
          "name": "itemPN",
          "type": "uint256"
        },
        {
          "name": "ownerID",
          "type": "address"
        },
        {
          "name": "originFactoryID",
          "type": "address"
        },
        {
          "name": "originFactoryName",
          "type": "string"
        },
        {
          "name": "originFactoryInformation",
          "type": "string"
        },
        {
          "name": "originFactoryLatitude",
          "type": "string"
        },
        {
          "name": "originFactoryLongitude",
          "type": "string"
        }
      ],
      "payable": false,
      "stateMutability": "view",
      "type": "function"
    },
    {
      "constant": true,
      "inputs": [
        {
          "name": "_pn",
          "type": "uint256"
        }
      ],
      "name": "fetchItemBufferTwo",
      "outputs": [
        {
          "name": "itemSKU",
          "type": "uint256"
        },
        {
          "name": "itemPN",
          "type": "uint256"
        },
        {
          "name": "productID",
          "type": "uint256"
        },
        {
          "name": "productNotes",
          "type": "string"
        },
        {
          "name": "productPrice",
          "type": "uint256"
        },
        {
          "name": "itemState",
          "type": "uint8"
        },
        {
          "name": "factoryID",
          "type": "address"
        },
        {
          "name": "warehouseID",
          "type": "address"
        },
        {
          "name": "customerID",
          "type": "address"
        }
      ],
      "payable": false,
      "stateMutability": "view",
      "type": "function"
    }
  ],
  "bytecode": "0x6080604052336000806101000a81548173ffffffffffffffffffffffffffffffffffffffff021916908373ffffffffffffffffffffffffffffffffffffffff160217905550600160028190555060018081905550611b10806100626000396000f300608060405260043610610099576000357c0100000000000000000000000000000000000000000000000000000000900463ffffffff16806318cfb1421461009e57806341c0e1b5146100cb57806366225ff9146100e257806377c45913146102525780637d1098eb146104b0578063be21af531461065b578063d38ea5bf14610688578063ef99c3d0146106a8578063f61c899a146106df575b600080fd5b3480156100aa57600080fd5b506100c96004803603810190808035906020019092919050505061070c565b005b3480156100d757600080fd5b506100e061083a565b005b3480156100ee57600080fd5b5061010d600480360381019080803590602001909291905050506108cb565b604051808a81526020018981526020018881526020018060200187815260200186600581111561013957fe5b60ff1681526020018573ffffffffffffffffffffffffffffffffffffffff1673ffffffffffffffffffffffffffffffffffffffff1681526020018473ffffffffffffffffffffffffffffffffffffffff1673ffffffffffffffffffffffffffffffffffffffff1681526020018373ffffffffffffffffffffffffffffffffffffffff1673ffffffffffffffffffffffffffffffffffffffff168152602001828103825288818151815260200191508051906020019080838360005b8381101561020f5780820151818401526020810190506101f4565b50505050905090810190601f16801561023c5780820380516001836020036101000a031916815260200191505b509a505050505050505050505060405180910390f35b34801561025e57600080fd5b5061027d60048036038101908080359060200190929190505050610ae8565b604051808981526020018881526020018773ffffffffffffffffffffffffffffffffffffffff1673ffffffffffffffffffffffffffffffffffffffff1681526020018673ffffffffffffffffffffffffffffffffffffffff1673ffffffffffffffffffffffffffffffffffffffff16815260200180602001806020018060200180602001858103855289818151815260200191508051906020019080838360005b8381101561033957808201518184015260208101905061031e565b50505050905090810190601f1680156103665780820380516001836020036101000a031916815260200191505b50858103845288818151815260200191508051906020019080838360005b8381101561039f578082015181840152602081019050610384565b50505050905090810190601f1680156103cc5780820380516001836020036101000a031916815260200191505b50858103835287818151815260200191508051906020019080838360005b838110156104055780820151818401526020810190506103ea565b50505050905090810190601f1680156104325780820380516001836020036101000a031916815260200191505b50858103825286818151815260200191508051906020019080838360005b8381101561046b578082015181840152602081019050610450565b50505050905090810190601f1680156104985780820380516001836020036101000a031916815260200191505b509c5050505050505050505050505060405180910390f35b3480156104bc57600080fd5b5061065960048036038101908080359060200190929190803573ffffffffffffffffffffffffffffffffffffffff169060200190929190803590602001908201803590602001908080601f0160208091040260200160405190810160405280939291908181526020018383808284378201915050505050509192919290803590602001908201803590602001908080601f0160208091040260200160405190810160405280939291908181526020018383808284378201915050505050509192919290803590602001908201803590602001908080601f0160208091040260200160405190810160405280939291908181526020018383808284378201915050505050509192919290803590602001908201803590602001908080601f0160208091040260200160405190810160405280939291908181526020018383808284378201915050505050509192919290803590602001908201803590602001908080601f0160208091040260200160405190810160405280939291908181526020018383808284378201915050505050509192919290505050610e7f565b005b34801561066757600080fd5b50610686600480360381019080803590602001909291905050506112e6565b005b6106a660048036038101908080359060200190929190505050611414565b005b3480156106b457600080fd5b506106dd60048036038101908080359060200190929190803590602001909291905050506116f3565b005b3480156106eb57600080fd5b5061070a60048036038101908080359060200190929190505050611821565b005b806000600581111561071a57fe5b60036000838152602001908152602001600020600b0160009054906101000a900460ff16600581111561074957fe5b14151561075557600080fd5b6003600083815260200190815260200160002060030160009054906101000a900473ffffffffffffffffffffffffffffffffffffffff168073ffffffffffffffffffffffffffffffffffffffff163373ffffffffffffffffffffffffffffffffffffffff161415156107c657600080fd5b600160036000858152602001908152602001600020600b0160006101000a81548160ff021916908360058111156107f957fe5b02179055507fdf4e3d7d6e5997fff06c5c6dd7e9c64e735e56e9e29842eb84209308c68a745d836040518082815260200191505060405180910390a1505050565b6000809054906101000a900473ffffffffffffffffffffffffffffffffffffffff1673ffffffffffffffffffffffffffffffffffffffff163373ffffffffffffffffffffffffffffffffffffffff1614156108c9576000809054906101000a900473ffffffffffffffffffffffffffffffffffffffff1673ffffffffffffffffffffffffffffffffffffffff16ff5b565b600080600060606000806000806000600360008b8152602001908152602001600020600001549850600360008b8152602001908152602001600020600101549750600360008b8152602001908152602001600020600801549650600360008b81526020019081526020016000206009018054600181600116156101000203166002900480601f0160208091040260200160405190810160405280929190818152602001828054600181600116156101000203166002900480156109cf5780601f106109a4576101008083540402835291602001916109cf565b820191906000526020600020905b8154815290600101906020018083116109b257829003601f168201915b50505050509550600360008b8152602001908152602001600020600a01549450600360008b8152602001908152602001600020600b0160009054906101000a900460ff169350600360008b8152602001908152602001600020600b0160019054906101000a900473ffffffffffffffffffffffffffffffffffffffff169250600360008b8152602001908152602001600020600c0160009054906101000a900473ffffffffffffffffffffffffffffffffffffffff169150600360008b8152602001908152602001600020600d0160009054906101000a900473ffffffffffffffffffffffffffffffffffffffff1690508888888888888888889850985098509850985098509850985098509193959799909294969850565b600080600080606080606080600360008a8152602001908152602001600020600001549750600360008a8152602001908152602001600020600101549650600360008a815260200190815260200160002060020160009054906101000a900473ffffffffffffffffffffffffffffffffffffffff169550600360008a815260200190815260200160002060030160009054906101000a900473ffffffffffffffffffffffffffffffffffffffff169450600360008a81526020019081526020016000206004018054600181600116156101000203166002900480601f016020809104026020016040519081016040528092919081815260200182805460018160011615610100020316600290048015610c425780601f10610c1757610100808354040283529160200191610c42565b820191906000526020600020905b815481529060010190602001808311610c2557829003601f168201915b50505050509350600360008a81526020019081526020016000206005018054600181600116156101000203166002900480601f016020809104026020016040519081016040528092919081815260200182805460018160011615610100020316600290048015610cf35780601f10610cc857610100808354040283529160200191610cf3565b820191906000526020600020905b815481529060010190602001808311610cd657829003601f168201915b50505050509250600360008a81526020019081526020016000206006018054600181600116156101000203166002900480601f016020809104026020016040519081016040528092919081815260200182805460018160011615610100020316600290048015610da45780601f10610d7957610100808354040283529160200191610da4565b820191906000526020600020905b815481529060010190602001808311610d8757829003601f168201915b50505050509150600360008a81526020019081526020016000206007018054600181600116156101000203166002900480601f016020809104026020016040519081016040528092919081815260200182805460018160011615610100020316600290048015610e555780601f10610e2a57610100808354040283529160200191610e55565b820191906000526020600020905b815481529060010190602001808311610e3857829003601f168201915b50505050509050878787878787878797509750975097509750975097509750919395975091939597565b610e8761194f565b868073ffffffffffffffffffffffffffffffffffffffff163373ffffffffffffffffffffffffffffffffffffffff16141515610ec257600080fd5b6000600360008b815260200190815260200160002060010154141515610f50576040517f08c379a000000000000000000000000000000000000000000000000000000000815260040180806020018281038252601a8152602001807f50617274204e756d62657220616c72656164792065786973747300000000000081525060200191505060405180910390fd5b6002548260000181815250508882602001818152505033826060019073ffffffffffffffffffffffffffffffffffffffff16908173ffffffffffffffffffffffffffffffffffffffff168152505087826040019073ffffffffffffffffffffffffffffffffffffffff16908173ffffffffffffffffffffffffffffffffffffffff1681525050868260800181905250858260a00181905250848260c00181905250838260e001819052508882610100018181525050828261012001819052506000826101600190600581111561102257fe5b9081600581111561102f57fe5b8152505081600360008b8152602001908152602001600020600082015181600001556020820151816001015560408201518160020160006101000a81548173ffffffffffffffffffffffffffffffffffffffff021916908373ffffffffffffffffffffffffffffffffffffffff16021790555060608201518160030160006101000a81548173ffffffffffffffffffffffffffffffffffffffff021916908373ffffffffffffffffffffffffffffffffffffffff1602179055506080820151816004019080519060200190611105929190611a3f565b5060a0820151816005019080519060200190611122929190611a3f565b5060c082015181600601908051906020019061113f929190611a3f565b5060e082015181600701908051906020019061115c929190611a3f565b506101008201518160080155610120820151816009019080519060200190611185929190611a3f565b5061014082015181600a015561016082015181600b0160006101000a81548160ff021916908360058111156111b657fe5b021790555061018082015181600b0160016101000a81548173ffffffffffffffffffffffffffffffffffffffff021916908373ffffffffffffffffffffffffffffffffffffffff1602179055506101a082015181600c0160006101000a81548173ffffffffffffffffffffffffffffffffffffffff021916908373ffffffffffffffffffffffffffffffffffffffff1602179055506101c082015181600d0160006101000a81548173ffffffffffffffffffffffffffffffffffffffff021916908373ffffffffffffffffffffffffffffffffffffffff1602179055509050506001600254016002819055507f5322704d7ac0f91eb54cdfe75cf8980b6120dac37cc0a074a455311a38d4261c6001546040518082815260200191505060405180910390a1505050505050505050565b80600460058111156112f457fe5b60036000838152602001908152602001600020600b0160009054906101000a900460ff16600581111561132357fe5b14151561132f57600080fd5b6003600083815260200190815260200160002060030160009054906101000a900473ffffffffffffffffffffffffffffffffffffffff168073ffffffffffffffffffffffffffffffffffffffff163373ffffffffffffffffffffffffffffffffffffffff161415156113a057600080fd5b600560036000858152602001908152602001600020600b0160006101000a81548160ff021916908360058111156113d357fe5b02179055507f9addbaa2e711bd56ca26e700325c88e735a6626d06fae35de139f42c509f92e4836040518082815260200191505060405180910390a1505050565b806003600581111561142257fe5b60036000838152602001908152602001600020600b0160009054906101000a900460ff16600581111561145157fe5b14151561145d57600080fd5b6003600083815260200190815260200160002060030160009054906101000a900473ffffffffffffffffffffffffffffffffffffffff168073ffffffffffffffffffffffffffffffffffffffff163373ffffffffffffffffffffffffffffffffffffffff161415156114ce57600080fd5b60036000848152602001908152602001600020600a01548034101515156114f457600080fd5b83600080600460036000898152602001908152602001600020600b0160006101000a81548160ff0219169083600581111561152b57fe5b0217905550336003600089815260200190815260200160002060020160006101000a81548173ffffffffffffffffffffffffffffffffffffffff021916908373ffffffffffffffffffffffffffffffffffffffff1602179055506003600088815260200190815260200160002060030160009054906101000a900473ffffffffffffffffffffffffffffffffffffffff1673ffffffffffffffffffffffffffffffffffffffff166108fc600360008a8152602001908152602001600020600a01549081150290604051600060405180830381858888f19350505050158015611617573d6000803e3d6000fd5b507f82b63179bcc416394e1aeed7b1ee9a0b1a2ac01d89f580e49a79318835f2324d876040518082815260200191505060405180910390a160036000848152602001908152602001600020600a01549150813403905060036000848152602001908152602001600020600d0160009054906101000a900473ffffffffffffffffffffffffffffffffffffffff1673ffffffffffffffffffffffffffffffffffffffff166108fc829081150290604051600060405180830381858888f193505050501580156116e9573d6000803e3d6000fd5b5050505050505050565b816002600581111561170157fe5b60036000838152602001908152602001600020600b0160009054906101000a900460ff16600581111561173057fe5b14151561173c57600080fd5b6003600084815260200190815260200160002060030160009054906101000a900473ffffffffffffffffffffffffffffffffffffffff168073ffffffffffffffffffffffffffffffffffffffff163373ffffffffffffffffffffffffffffffffffffffff161415156117ad57600080fd5b6003806000868152602001908152602001600020600b0160006101000a81548160ff021916908360058111156117df57fe5b02179055507f60c325e5d5c87dd7f81e0decda2c3f8c82f9bdc0307906cbf366a85e1f39fe06846040518082815260200191505060405180910390a150505050565b806001600581111561182f57fe5b60036000838152602001908152602001600020600b0160009054906101000a900460ff16600581111561185e57fe5b14151561186a57600080fd5b6003600083815260200190815260200160002060030160009054906101000a900473ffffffffffffffffffffffffffffffffffffffff168073ffffffffffffffffffffffffffffffffffffffff163373ffffffffffffffffffffffffffffffffffffffff161415156118db57600080fd5b600260036000858152602001908152602001600020600b0160006101000a81548160ff0219169083600581111561190e57fe5b02179055507ff00b9a5725b80c54016f42114f6ed7792d22eecb116011c4afac29c57bef6c95836040518082815260200191505060405180910390a1505050565b6101e0604051908101604052806000815260200160008152602001600073ffffffffffffffffffffffffffffffffffffffff168152602001600073ffffffffffffffffffffffffffffffffffffffff16815260200160608152602001606081526020016060815260200160608152602001600081526020016060815260200160008152602001600060058111156119e257fe5b8152602001600073ffffffffffffffffffffffffffffffffffffffff168152602001600073ffffffffffffffffffffffffffffffffffffffff168152602001600073ffffffffffffffffffffffffffffffffffffffff1681525090565b828054600181600116156101000203166002900490600052602060002090601f016020900481019282601f10611a8057805160ff1916838001178555611aae565b82800160010185558215611aae579182015b82811115611aad578251825591602001919060010190611a92565b5b509050611abb9190611abf565b5090565b611ae191905b80821115611add576000816000905550600101611ac5565b5090565b905600a165627a7a723058204c22ed146b2e70dcbdf502c83743bc94fb9e0692521110ae0a27c99f8a37ff010029",
  "source": "pragma solidity ^0.4.24;\n// Define a contract 'Supplychain'\ncontract SupplyChain {\n\n  // Define 'owner'\n  address owner;\n\n  // Define a variable called 'pn' for Part Number (PN)\n  uint  pn;\n\n  // Define a variable called 'sku' for Stock Keeping Unit (SKU)\n  uint  sku;\n\n  // Define a public mapping 'items' that maps the PN to an Item.\n  mapping (uint => Item) items;\n\n  // Define a public mapping 'itemsHistory' that maps the PN to an array of TxHash, \n  // that track its journey through the supply chain -- to be sent from DApp.\n  mapping (uint => string[]) itemsHistory;\n  \n  // Define enum 'State' with the following values:\n  enum State \n  { \n    Mtl_Received,  // 0\n    Built,  // 1\n    Shipped,     // 2\n    Widget_Received,    // 3\n    Widget_Purchased,       // 4\n    Widget_Shipped_to_Customer    // 5\n    }\n\n  State constant defaultState = State.Mtl_Received;\n\n  // Define a struct 'Item' with the following fields:\n  struct Item {\n    uint    sku;  // Stock Keeping Unit (SKU)\n    uint    pn; // Part Number (PN), generated by the owner, goes on the package, can be verified by the customer\n    address ownerID;  // Metamask-Ethereum address of the current owner as the product moves through the stages\n    address originFactoryID; // Metamask-Ethereum address of the Factory\n    string  originFactoryName; // Factory Name\n    string  originFactoryInformation;  // FactoryInformation\n    string  originFactoryLatitude; // FactoryLatitude\n    string  originFactoryLongitude;  // Factory Longitude\n    uint    productID;  // Product ID potentially a combination of pn + sku\n    string  productNotes; // Product Notes\n    uint    productPrice; // Product Price\n    State   itemState;  // Product State as represented in the enum above\n    address factoryID;  // Metamask-Ethereum address of the factory\n    address warehouseID; // Metamask-Ethereum address of the warehouse\n    address customerID; // Metamask-Ethereum address of the customer\n  }\n\n  // Define events with the same state values and accept 'pn' as input argument\n  event Mtl_Received(uint pn);\n  event Built(uint pn);\n  event Shipped(uint pn);\n  event Widget_Received(uint pn);\n  event Widget_Purchased(uint pn);\n  event Widget_Shipped_to_Customer(uint pn);\n\n  // Define a modifer that checks to see if msg.sender == owner of the contract\n  modifier onlyOwner() {\n    require(msg.sender == owner);\n    _;\n  }\n\n  // Define a modifer that verifies the Caller\n  modifier verifyCaller (address _address) {\n    require(msg.sender == _address); \n    _;\n  }\n\n  // Define a modifier that checks if the paid amount is sufficient to cover the price\n  modifier paidEnough(uint _price) { \n    require(msg.value >= _price); \n    _;\n  }\n  \n  // Define a modifier that checks the price and refunds the remaining balance\n  modifier checkValue(uint _pn) {\n    _;\n    uint _price = items[_pn].productPrice;\n    uint amountToReturn = msg.value - _price;\n    items[_pn].customerID.transfer(amountToReturn);\n  }\n\n  // Define a modifier that checks if an item.state of a pn is Mtl_Received\n  modifier mtl_received(uint _pn) {\n    require(items[_pn].itemState == State.Mtl_Received);\n    _;\n  }\n\n  // Define a modifier that checks if an item.state of a pn is Built\n  modifier built(uint _pn) {\n    require(items[_pn].itemState == State.Built);\n    _;\n  }\n  \n  // Define a modifier that checks if an item.state of a pn is Shipped\n  modifier shipped(uint _pn) {\n    require(items[_pn].itemState == State.Shipped);\n    _;\n  }\n\n  // Define a modifier that checks if an item.state of a pn is Widget_Received\n  modifier widget_received(uint _pn) {\n    require(items[_pn].itemState == State.Widget_Received);\n    _;\n  }\n\n  // Define a modifier that checks if an item.state of a pn is Widget_Purchased\n  modifier widget_purchased(uint _pn) {\n    require(items[_pn].itemState == State.Widget_Purchased);\n    _;\n  }\n  \n  // Define a modifier that checks if an item.state of a pn is Widget_Shipped_to_Customer\n  modifier widget_shipped_to_customer(uint _pn) {\n    require(items[_pn].itemState == State.Widget_Shipped_to_Customer);\n    _;\n  }\n\n  // In the constructor set 'owner' to the address that instantiated the contract\n  // and set 'sku' to 1\n  // and set 'pn' to 1\n  constructor() public payable {\n    owner = msg.sender;\n    sku = 1;\n    pn = 1;\n  }\n\n  // Define a function 'kill' if required\n  function kill() public {\n    if (msg.sender == owner) {\n      selfdestruct(owner);\n    }\n  }\n\n    // Define a function 'receiveItem' that allows a factory to mark an item 'Mtl_Received'\n    function receiveItem(uint _pn, address _originFactoryID, string memory _originFactoryName, string memory _originFactoryInformation, string memory  _originFactoryLatitude, string memory  _originFactoryLongitude, string memory  _productNotes) public\n    verifyCaller(_originFactoryID)\n\n    {\n        // Part Numbers Uniqueness Check\n        require(items[_pn].pn == 0, \"Part Number already exists\");\n\n        // Add the new item\n        Item memory newItem;\n        newItem.sku = sku;\n        newItem.pn = _pn;\n        newItem.originFactoryID = msg.sender;\n        newItem.ownerID = _originFactoryID;\n        newItem.originFactoryName = _originFactoryName;\n        newItem.originFactoryInformation = _originFactoryInformation;\n        newItem.originFactoryLatitude = _originFactoryLatitude;\n        newItem.originFactoryLongitude = _originFactoryLongitude;\n        newItem.productID = _pn;\n        newItem.productNotes = _productNotes;\n        newItem.itemState = State.Mtl_Received;\n\n        /*\n        items[_pn].sku = sku;\n        items[_pn].pn = _pn;\n        items[_pn].originFactoryID = msg.sender;\n        items[_pn].ownerID = _originFactoryID;\n        items[_pn].originFactoryName = _originFactoryName;\n        items[_pn].originFactoryInformation = _originFactoryInformation;\n        items[_pn].originFactoryLatitude = _originFactoryLatitude;\n        items[_pn].originFactoryLongitude = _originFactoryLongitude;\n        items[_pn].productID = _pn;\n        items[_pn].productNotes = _productNotes;\n        items[_pn].itemState = State.Mtl_Received;\n        */\n\n        // Update mapping\n        items[_pn] = newItem;\n        // Increment sku\n        sku = sku + 1;\n        // Emit the appropriate event\n        emit Mtl_Received(pn);\n    }\n    \n\n    // Define a function 'buildWidget' that allows a Factory to mark an item 'Built'\n    function buildWidget(uint _pn) public\n    // Call modifier to check if sn has passed previous supply chain stage (is removed)\n    mtl_received(_pn)\n\n    // Call modifier to verify caller of this function\n    verifyCaller(items[_pn].originFactoryID)\n\n    {\n        // Update the appropriate fields\n        items[_pn].itemState = State.Built;\n\n        // Emit the appropriate event\n        emit Built(_pn);\n\n    }\n\n    // Define a function 'shipItem' that allows a Factory to mark an item 'Shipped'\n    function shipItem(uint _pn) public\n    // Modifier to check if pn has passed previous supply chain stage\n    built(_pn)\n\n    // Modifier to verify caller of this function\n    verifyCaller(items[_pn].originFactoryID)\n\n    {\n        // Update the appropriate fields\n        items[_pn].itemState = State.Shipped;\n\n        // Emit the appropriate event\n        emit Shipped(_pn);\n\n    }\n\n    // Define a function 'receiveItemWarehouse' that allows a Warehouse to mark an item 'Widget_Received'\n    function receiveItemWarehouse(uint _pn, uint _price) public\n    // Modifier to check if pn has passed previous supply chain stage\n    shipped(_pn)\n\n    // Modifier to verify caller of this function\n    verifyCaller(items[_pn].originFactoryID)\n\n    {\n        // Update the appropriate fields\n        items[_pn].itemState = State.Widget_Received;\n\n        // Emit the appropriate event\n        emit Widget_Received(_pn);\n\n    }\n\n    // Define a function 'purchaseItem' that allows a factory to mark an item 'Widget_Purchased'\n    function purchaseItem(uint _pn) public payable \n    // Modifier to check if pn has passed previous supply chain stage\n    widget_received(_pn)\n\n    // Modifier to verify caller of this function\n    verifyCaller(items[_pn].originFactoryID)\n    paidEnough(items[_pn].productPrice) checkValue(_pn)\n\n    {\n        // Update the appropriate fields\n        items[_pn].itemState = State.Widget_Purchased;\n        items[_pn].ownerID = msg.sender;  \n\n        // Transfer money to farmer\n        items[_pn].originFactoryID.transfer(items[_pn].productPrice);\n\n        // Emit the appropriate event\n        emit Widget_Purchased(_pn);\n\n    }\n\n    // Define a function 'shipItemCustomer' that allows a factory to mark an item 'Widget_Shipped_to_Customer'\n    function shipItemCustomer(uint _pn) public\n    // Modifier to check if sn has passed previous supply chain stage\n    widget_purchased(_pn)\n\n    // Modifier to verify caller of this function\n    verifyCaller(items[_pn].originFactoryID)\n\n    {\n        // Update the appropriate fields\n        items[_pn].itemState = State.Widget_Shipped_to_Customer;\n\n        // Emit the appropriate event\n        emit Widget_Shipped_to_Customer(_pn);\n    }\n\n\n  // Define a function 'fetchItemBufferOne' that fetches the data\n  function fetchItemBufferOne(uint _pn) public view returns \n  (\n  uint itemSKU,\n  uint itemPN,\n  address ownerID,\n  address originFactoryID,\n  string  originFactoryName,\n  string  originFactoryInformation,\n  string  originFactoryLatitude,\n  string  originFactoryLongitude\n  ) \n  {\n  itemSKU = items[_pn].sku;\n  itemPN = items[_pn].pn;\n  ownerID = items[_pn].ownerID;\n  originFactoryID = items[_pn].originFactoryID;\n  originFactoryName = items[_pn].originFactoryName;\n  originFactoryInformation = items[_pn].originFactoryInformation;\n  originFactoryLatitude =  items[_pn].originFactoryLatitude;\n  originFactoryLongitude = items[_pn].originFactoryLongitude;\n  \n  return \n  (\n  itemSKU,\n  itemPN,\n  ownerID,\n  originFactoryID,\n  originFactoryName,\n  originFactoryInformation,\n  originFactoryLatitude,\n  originFactoryLongitude\n  );\n  }\n\n  // Define a function 'fetchItemBufferTwo' that fetches the data\n  function fetchItemBufferTwo(uint _pn) public view returns \n  (\n  uint    itemSKU,\n  uint    itemPN,\n  uint    productID,\n  string  productNotes,\n  uint    productPrice,\n  State    itemState,\n  address factoryID,\n  address warehouseID,\n  address customerID\n  ) \n  {\n    // Assign values to the 9 parameters\n  itemSKU  = items[_pn].sku;\n  itemPN = items[_pn].pn;\n  productID = items[_pn].productID;\n  productNotes  = items[_pn].productNotes;\n  productPrice = items[_pn].productPrice;\n  itemState = items[_pn].itemState;\n  //itemState = items[_pn].itemState;\n  factoryID  = items[_pn].factoryID;\n  warehouseID = items[_pn].warehouseID;\n  customerID = items[_pn].customerID;\n    \n  return \n  (\n  itemSKU,\n  itemPN,\n  productID,\n  productNotes,\n  productPrice,\n  itemState,\n  factoryID,\n  warehouseID,\n  customerID\n  );\n  }\n}\n",
  "sourcePath": "/Users/203014767/nd1309-Project-6b-Example-Template/project-6/contracts/coffeebase/SupplyChain.sol",
  "compiler": {
    "name": "solc",
    "version": "0.4.25+commit.59dbf8f1.Emscripten.clang"
  },
  "schemaVersion": "2.0.2",
  "updatedAt": "2019-04-01T14:53:49.771Z"
}